S00D00005069616E6F2E7372656320
S11300000C942A000C9447000C9447000C9447006D
S11300100C9447000C9447000C9447000C94D100B6
S11300200C9447000C9447000C9447000C94470030
S11300300C9447000C9447000C9447000C94470020
S11300400C9447000C9447000C9447000C94470010
S11300500C94470011241FBECFE5D8E0DEBFCDBF0E
S113006010E0A0E6B0E0E6E7F5E002C005900D92EE
S1130070A23DB107D9F720E0A2EDB0E001C01D9286
S1130080A83DB207E1F70E94B2010C94B9020C94A6
S11300900000982F907F92BBC098C198C29A00002C
S11300A0C29891E29A95F1F700008295807F82BB15
S11300B0C29A0000C29881E28A95F1F7000008957F
S11300C0982F907F92BBC09AC198C29A0000C298A0
S11300D08295807F82BBC29A0000C29881E28A9591
S11300E0F1F70000089581B3806F81BB87B3876007
S11300F087BBC29883E30E94490082E30E944900BF
S113010088E20E9449008EE00E94490081E00E943A
S1130110490083EF91E00197F1F700C0000086E009
S11301200E9449000895CF93DF9300D000D0CDB74B
S1130130DEB790E8998390EC9A8394E99B8394EDDD
S11301409C83FE01E60FF11D81509081890F0E946E
S1130150490081E28A95F1F700000F900F900F900B
S11301600F90DF91CF9108950F931F93CF93FC01CC
S11301708081882359F08F01C0E00E946000CF5F26
S1130180F801EC0FF11D80818111F7CFCF911F9100
S11301900F9108958EB58C608EBD89B7806189BF3B
S11301A008951F920F920FB60F9211242F933F932D
S11301B04F935F936F937F938F939F93AF93BF936B
S11301C0CF93EF93FF938091600090916100892B0E
S11301D009F0B6C062E08091D6000E94930080E2EC
S11301E00E9460008091D4009091D500FC01EE0F34
S11301F0FF1FE80FF91FEE59FF4F218101969093DD
S1130200D5008093D400FC01EE0FFF1F8E0F9F1FBB
S1130210FC01EE59FF4F308140ED57E0349FC0019F
S1130220359F900D11249BBD8ABD8091D40090917F
S1130230D500FC01EE0FFF1FE80FF91FEE59FF4F29
S1130240C1812C131CC02091D2003091D300232BE8
S113025089F4FC01EE0FFF1FE80FF91FEE59FF4F61
S113026022812F5F228321E030E03093D30020935A
S1130270D2000BC01092D3001092D20006C022E02C
S113028030E03093D3002093D200FC01EE0FFF1F27
S11302908E0F9F1FFC01EE59FF4F8281282F30E003
S11302A03093D7002093D60062E00E9493008C2FF5
S11302B00E9460008091D2009091D300813091051A
S11302C079F48091D4009091D500FC01EE0FFF1FCA
S11302D0E80FF91FEE59FF4F82818150828306C0D7
S11302E0029721F41092D3001092D2008091D4008E
S11302F09091D500499721F5C29881E00E94490068
S113030083EF91E00197F1F700C000008DEA90E0DF
S11303100E94B40062E086E00E9493008CEB90E0BF
S11303200E94B40088EC90E09BBD8ABD81E090E01F
S113033090936100809360001092D5001092D400D5
S1130340FF91EF91CF91BF91AF919F918F917F9149
S11303506F915F914F913F912F910F900FBE0F902E
S11303601F90189583B7886083BF83B7806183BF6C
S113037083B7826083BF0E94CA000E94730088EC26
S113038090E09BBD8ABD789482EC90E00E94B4001A
S113039062E086E00E9493008CEB90E00E94B4003F
S11303A08AB31ABA8BB38FEF8BBB2FE78AE196E03F
S11303B0215080409040E1F700C00000CF99FECF6B
S11303C0C29881E00E94490083EF91E00197F1F720
S11303D000C0000061E081E00E94930082EC90E0A4
S11303E00E94B4008091D4009091D500FC01EE0FDE
S11303F0FF1F8E0F9F1FFC01EE59FF4F408120ED20
S113040037E0429FC001439F900D11249BBD8ABDDC
S11304108091D4009091D500FC01EE0FFF1F8E0F48
S11304209F1FFC01EE59FF4FC1818281282F30E0CC
S11304303093D7002093D60062E00E9493008C2F63
S11304400E9460001092610010926000C0EDD7E03D
S11304500F2EFEEECF2EF02D0F2EF4EDDF2EF02D0D
S11304600F2EFDEBEF2EF02D0F2EF3EBFF2EF02DC4
S11304700FE91EE88091600090916100019709F0F6
S113048045C0CF9943C0C29881E00E94490083EFE0
S113049091E00197F1F700C0000061E081E00E9463
S11304A0930082EC90E00E94B4008091D40090917B
S11304B0D500FC01EE0FFF1F8E0F9F1FFC01EE59AC
S11304C0FF4F20812C9FC0012D9F900D11249BBDB7
S11304D08ABD8091D4009091D500FC01EE0FFF1FDE
S11304E0E80FF91FEE59FF4FB1808281282F30E0C9
S11304F03093D7002093D60062E00E9493008B2DA6
S11305000E9460001092610010926000C89905C0BA
S1130510CCBEBB9AC89BFECFBB98C99905C0DCBEB4
S1130520BB9AC99BFECFBB98CA9905C0ECBEBB9AC7
S1130530CA9BFECFBB98CB9905C0FCBEBB9ACB9B94
S1130540FECFBB98CC9905C00CBFBB9ACC9BFECF09
S1130550BB98CD9905C01CBFBB9ACD9BFECFBB9861
S1130560CE9988CF8EE78CBFBB9ACE9BFECFBB982B
S109057081CFF894FFCFD7
S1130576010001470901470902410B0247090243E9
S11305860104420D01470901470902410B024709CB
S113059602440304430101470901470902470902CA
S11305A6450502430102420D04410B01460701467B
S11305B607024505024301024403084301686170CA
S11305C67079204269727468646179005374617247
S11305D67400486170707920426972746864617944
S10505E600000F
S9030000FC
